:100000000C94A2000C94BB000C94BB000C94BB009D
:100010000C94BB000C94BB000C94BB000C94BB0074
:100020000C94BB000C94BB000C94BB000C94BB0064
:100030000C94BB000C94BB000C94BB000C94BB0054
:100040000C94BB000C94BB000C94BB000C94BB0044
:100050000C94BB000C94BB000C94BB000C94BB0034
:100060000C94BB000C94BB000C94BB000C94BB0024
:100070000C94BB000C94BB000C94BB000C94BB0014
:100080000C94BB000C94BB000C94BB000C94BD0002
:100090000C94BB000C94BB000C94BB000C94BB00F4
:1000A0000C94BB000C94BB000C94BB000C94BB00E4
:1000B0000C94BB000C94BB000C94BB000C94BB00D4
:1000C0000C94BB000C94BB000C94BB000C94BB00C4
:1000D0000C94BB000C94BB000C94BB000C94BB00B4
:1000E0000C94BB000C94BB000C94BB000C94BB00A4
:1000F0000C94BB000C94BB000C94BB000C94BB0094
:100100000C94BB000C94BB000C94BB000C94BB0083
:100110000C94BB000C94BB000C94BB000C94BB0073
:100120000C94BB000C94BB000C94BB000C94BB0063
:100130000C94BB000C94BB000C94BB000C94BB0053
:100140000C94BB0011241FBECFEFCDBFDFE3DEBF99
:1001500000E00CBF10E2A0E0B0E2E8E1F5E000E072
:100160000BBF02C007900D92A630B107D9F70E94CD
:10017000D2010C948A020C9400001F920F920FB6C9
:100180000F9211240F900FBE0F901F90189580E2D0
:10019000E0E8F6E08583089580E2E0E8F6E0868313
:1001A0000895E0E7F0E080818F778083E0E0FDE074
:1001B00084E0808388EB81838FE382838BE3838376
:1001C00087EF85838081826880838FE187830895AC
:1001D0002CE82093080D28E0215041F0FC013191DA
:1001E000CF01332319F03093090DF6CF089522E49F
:1001F0002093080DFC013596E817F90731F022919C
:10020000222319F02093090DF7CF08958430D0F4FC
:100210006832C0F4262F26952695269530E095E085
:10022000899F200D311D1124F901E05FF24F2081DB
:10023000677081E090E0062E01C0880F0A94EAF70B
:10024000282B208308958430D8F46832C8F4262FF0
:1002500026952695269530E095E0899F200D311D45
:100260001124F901E05FF24F2081677081E090E096
:10027000062E01C0880F0A94EAF780952823208370
:1002800008958A30910508F4C0969C012A503109DE
:100290002630310508F4C7960895EF92FF920F9328
:1002A0001F93CF93DF93CDB7DEB72597CDBFDEBFCA
:1002B0007C0160E177E20E9476028B016115710595
:1002C00021F0CB010E94410101C080E2898320E13D
:1002D00037E2029FC001039F900D129F900D1124E1
:1002E000E81AF90AC70168EE73E00E9476028B01F2
:1002F0006115710521F0CB010E94410101C080E22E
:100300008A8328EE33E0029FC001039F900D129F65
:10031000900D1124E81AF90AC70164E670E00E9402
:1003200076028B016115710519F48A81803219F00A
:10033000C8010E9441018B8324E6209FC001219FB8
:10034000900D1124E81AF90AC7016AE070E00E94D2
:1003500076028B016115710531F48B81803219F4BD
:100360008A81803219F0C8010E9441018C832AE001
:10037000209FC001219F900D11249701281B390B4C
:10038000C9010E9441018D83CE0101960E94F700B0
:100390002596CDBFDEBFDF91CF911F910F91FF90CA
:1003A000EF900895CF93DF9300D000D0CDB7DEB7A4
:1003B00080EF80932006809325068FEF8093800640
:1003C0008093850688ED84BF82E080935000809101
:1003D000510081FFFCCF88ED84BF81E08093400015
:1003E0008093430087E08093A2000E94D10078941C
:1003F00086E0E0E0F0E2DE01119601900D928A9530
:10040000E1F7CE0101960E94E80089E390E30E94A3
:100410004D0160E082E00E9406016DE080E00E94F4
:1004200006016EE083E00E94060161E180E00E9427
:10043000060162E183E00E94060165E180E00E941E
:10044000060166E183E00E94060169E180E00E9406
:1004500006016AE183E00E94060164E083E00E94F5
:10046000060166E083E00E94060168E083E00E94E6
:1004700006016AE083E00E9406016AE080E00E94D3
:1004800006016EE183E00E9406016DE180E00E94BA
:1004900006016BE083E00E9406016BE082E00E94AF
:1004A00006016BE081E00E9406016BE080E00E94A3
:1004B000060160E080E00E94060160E081E00E94A9
:1004C000060160E083E00E94060161E080E00E9496
:1004D000060161E081E00E94060161E082E00E9485
:1004E000060161E083E00E940601FFCFAA1BBB1B4F
:1004F00051E107C0AA1FBB1FA617B70710F0A61B24
:10050000B70B881F991F5A95A9F780959095BC0144
:08051000CD010895F894FFCF1E
:06051800584D454741006B
:00000001FF
